:10FC00000110021003100410411042104310441060
:10FC10000111021103110411411142114311441148
:10FC20000012011202120312041240124112421277
:10FC30004312441210100200501002001310120060
:10FC40002110621023106410311032103310341060
:10FC50001112050013120500221232122312331260
:10FC60008010821083108110C510801181118211C3
:10FC700083118411C41193110C00A311A411E41178
:10FC8000C2129012D204B012D2048512C512A6126A
:10FC90009212D2040013401304400441044204436E
:10FCA0000444044385437B00B54041017B00C543C8
:10FCB0007B00F54041017B0080437B00B040410167
:10FCC0007B0085537B00B55041017B00C5537B0011
:10FCD000F55041017B0080537B00B05041017B0017
:10FCE00085637B00B56041017B00C5637B00F560E7
:10FCF00041017B0080637B00B06041017B00858314
:10FD00007B00B58041017B00C5837B00F58041010C
:10FD10007B0080837B00B08041017B0085737B008A
:10FD2000B57041017B00C5737B00F57041017B001C
:10FD300080737B00B07041017B0085937B00B590A0
:10FD400041017B00C5937B00F59041017B008093CE
:10FD50007B00B09041017B0085A37B00B5A04101F1
:10FD60007B00C5A37B00F5A041017B0080A37B0045
:10FD7000B0A041017B0085B37B00B5B041017B00A1
:10FD8000C5B37B00F5B041017B0080B37B00B0B010
:10FD900041017B0085C37B00B5C041017B00C5C329
:10FDA0007B00F5C041017B0080C37B00B0C04101F6
:10FDB0007B0085D37B00B5D041017B00C5D37B00A0
:10FDC000F5D041017B0080D37B00B0D041017B00A6
:10FDD00085E37B00B5E041017B00C5E37B00F5E0F6
:10FDE00041017B0080E37B00B0E041017B0085F3B3
:10FDF0007B00B5F041017B00C5F37B00F5F04101CC
:0CFE00007B0080F37B00B0F041017B0030
:02FFFE0000FC05
:040000030000FC00FD
:00000001FF
