:01fc00000300
:01fc010043bf
:01fc02000001
:01fc030013ed
:01fc040005fa
:01fc050010ee
:01fc060010ed
:01fc070010ec
:01fc08007b80
:01fc090000fa
:01fc0a0015e4
:01fc0b0010e8
:01fc0c007b7c
:01fc0d0000f6
:01fc0e0025d0
:01fc0f0010e4
:01fc100035be
:01fc110010e2
:01fc120012df
:01fc130010e0
:01fc1400d21d
:01fc150004ea
:01fc160043aa
:01fc170010dc
:01fc18005695
:01fc190010da
:01fc1a007b6e
:01fc1b0000e8
:01fc1c005295
:01fc1d0010d6
:01fc1e00d213
:01fc1f0004e0
:01fc20005093
:01fc210010d2
:01fc2200d20f
:01fc230004dc
:01fc2400756a
:01fc25003ca2
:01fc26007568
:01fc270028b4
:01fc28000bd0
:01fc29004496
:01fc2a008257
:01fc2b004d8b
:01fc2c004196
:01fc2d0001d5
:01fc2e001cb9
:01fc2f00478d
:01fc30004192
:01fc310001d1
:01fc3200923f
:01fc33004789
:01fc3400418e
:01fc350001cd
:01fc3600428b
:01fc370001cb
:01fc38001caf
:01fc39004288
:01fc3a004188
:01fc3b0001c7
:01fc3c009235
:01fc3d004284
:01fc3e004184
:01fc3f0001c3
:01fc40004281
:01fc410001c1
:01fc42002c95
:01fc4300457b
:01fc4400a21d
:01fc45004579
:01fc4600427b
:01fc470001bb
:01fc48003c7f
:01fc49004575
:01fc4a00b207
:01fc4b004573
:01fc4c004275
:01fc4d0001b5
:01fc4e001b9a
:01fc4f004074
:01fc50004172
:01fc510001b1
:01fc5200921f
:01fc53004070
:01fc5400416e
:01fc550001ad
:01fc5600416c
:01fc570001ab
:01fc580000ab
:01fc59001397
:01fc5a0004a5
:01fc5b001098
:01fc5c0004a3
:01fc5d001096
:01fc5e000f96
:01fc5f001094
:01fc6000059e
:01fc61004161
:01fc6200158c
:01fc6300118f
:01fc64007b24
:01fc6500009e
:01fc6600039a
:01fc67004359
:01fc6800a7f4
:01fc6900108a
:01fc6a00b8e1
:01fc6b001088
:01fc6c009205
:01fc6d001185
:01fc6e007b1a
:01fc6f000094
:01fc70009201
:01fc71001181
:01fc72004150
:01fc7300018f
:01fc740090ff
:01fc7500117d
:01fc76007b12
:01fc7700008c
:01fc780090fb
:01fc79001179
:01fc7a004148
:01fc7b000187
:01fc7c00a4e3
:01fc7d001175
:01fc7e003451
:01fc7f004044
:01fc80007b08
:01fc81000082
:01fc8200b2cf
:01fc83004040
:01fc84007b04
:01fc8500007e
:01fc8600413c
:01fc8700017b
:01fc8800d3a8
:01fc89003c3e
:01fffe000002
:01ffff00fc05
:00000001ff
